:020000040800F2
:10000000941100206503000821010008290100085F
:1000100031010008390100084101000819010008F8
:100020001901000819010008190100084901000818
:100030005101000819010008590100086101000878
:1000400069010008710100087901000881010008B8
:10005000890100089101000899010008A101000828
:10006000A9010008B1010008B9010008C101000898
:10007000C9010008D1010008D9010008E101000808
:10008000E9010008F1010008F90100080102000877
:1000900009020008110200081902000821020008E4
:1000A0002902000831020008390200084102000854
:1000B00049020008510200085902000861020008C4
:1000C0006902000871020008790200088102000834
:1000D000890200089102000899020008A1020008A4
:1000E000A9020008B1020008B9020008C102000814
:1000F000C9020008D1020008D9020008E102000884
:10010000E9020008F1020008F902000801030008F2
:1001100009030008110300084FF0000000F0FCB8CC
:100120004FF0020000F0F8B84FF0030000F0F4B810
:100130004FF0040000F0F0B84FF0050000F0ECB80C
:100140004FF0060000F0E8B84FF00B0000F0E4B804
:100150004FF00C0000F0E0B84FF00E0000F0DCB8FB
:100160004FF00F0000F0D8B84FF0100000F0D4B8F6
:100170004FF0110000F0D0B84FF0120000F0CCB8F2
:100180004FF0130000F0C8B84FF0140000F0C4B8EE
:100190004FF0150000F0C0B84FF0160000F0BCB8EA
:1001A0004FF0170000F0B8B84FF0180000F0B4B8E6
:1001B0004FF0190000F0B0B84FF01A0000F0ACB8E2
:1001C0004FF01B0000F0A8B84FF01C0000F0A4B8DE
:1001D0004FF01D0000F0A0B84FF01E0000F09CB8DA
:1001E0004FF01F0000F098B84FF0200000F094B8D6
:1001F0004FF0210000F090B84FF0220000F08CB8D2
:100200004FF0230000F088B84FF0240000F084B8CD
:100210004FF0250000F080B84FF0260000F07CB8C9
:100220004FF0270000F078B84FF0280000F074B8C5
:100230004FF0290000F070B84FF02A0000F06CB8C1
:100240004FF02B0000F068B84FF02C0000F064B8BD
:100250004FF02D0000F060B84FF02E0000F05CB8B9
:100260004FF02F0000F058B84FF0300000F054B8B5
:100270004FF0310000F050B84FF0320000F04CB8B1
:100280004FF0330000F048B84FF0340000F044B8AD
:100290004FF0350000F040B84FF0360000F03CB8A9
:1002A0004FF0370000F038B84FF0380000F034B8A5
:1002B0004FF0390000F030B84FF03A0000F02CB8A1
:1002C0004FF03B0000F028B84FF03C0000F024B89D
:1002D0004FF03D0000F020B84FF03E0000F01CB899
:1002E0004FF03F0000F018B84FF0400000F014B895
:1002F0004FF0410000F010B84FF0420000F00CB891
:100300004FF0430000F008B84FF0440000F004B88C
:100310004FF0450000F000B86A4602F12002EFF30A
:1003200010832DE9FC0F72B669466C4624F0070273
:10033000954600F0EBFC2146884209D000F12801E7
:1003400091E8F00F016821E9F00F90E8FC0F01E05F
:10035000B1E8FC0F81F308886FF0060E83F3108874
:100360007047000008B500F027F800F073F900F0BE
:1003700081F80C4B0C4A934203D2002243F8042B21
:10038000F8E70A4A0A4B0B498B4204D252F8041F81
:1003900043F8041BF7E700F075FB00F05DFE00F08A
:1003A00061FE00BFC4000020980F00205025010806
:1003B00000000020C400002010B5284C4FF400605D
:1003C000236843F08053236000F02AFC244B1A6812
:1003D00042F001021A602246196821488C07FBD5B9
:1003E00020490B6843F004040C6043F0050443F01B
:1003F00007030C600B601C4B196821F0F0011960B9
:10040000196821F460511960196821F4E0611960DC
:10041000196821F47D0141F488011960016841F0F7
:10042000807101600E4909688901FBD5196841F0A6
:1004300003011960196801F00C010C29FAD148F286
:10044000FF010A4B19600A490B6843F001030B6076
:10045000136843F08053136010BD00BF243802407E
:1004600000380240003C0240083802401C3802407C
:10047000203802407047C0F30313032B09D8054A04
:1004800000F00F0052F82320012301B910308340FF
:1004900093617047F00201082DE9F047C0F303169D
:1004A000032E044600F2AA80564B00F00F0753F8C3
:1004B000265000F44023B3F5002F12D0B3F5402F9F
:1004C0000CD0B3F5802F02D04FF0000E0BE0C0F33C
:1004D0000021FFF7D0FF4FF0010E04E04FF0030EB4
:1004E00001E04FF0020EEFF3108072B603234FEAE3
:1004F000470C03FA0CF3DB432A680EFA0CF11A409E
:100500000A43BEF1030F2A600AD004F44032B2F568
:10051000803F07D0B2F5003F0CBF0222002202E06C
:10052000002200E00122E96802FA0CF219400A43B5
:10053000BEF1020FEA600CBFC4F303320022072FA2
:1005400095BF39464FF024084FF02008A7F1080165
:1005500058F805A089004FF00F0909FA01F92AEAB5
:1005600009098A4049EA020248F805200EF1FF38DD
:10057000B8F1010F12D804F44062B2F5006F09D04F
:10058000B2F5406F08D0A2F58069D9F1000242EBC4
:10059000090204E0022202E0032200E00022A9682E
:1005A00002FA0CF219400A43AA600123B8F1010FC4
:1005B0006A6803FA07F303D8A10501D5134301E0E4
:1005C00022EA0303BEF1010F6B6010D0E3050ED5E4
:1005D0000D4D04F00C0704F003047959A4000F2317
:1005E000A34021EA030206FA04F313437B5110F0FF
:1005F000010F00D162B60020BDE8F0876FF0150052
:10060000BDE8F087F002010808000140C0B2FFF722
:1006100043BFC0F30313032B0CD8074A00F00F00AD
:1006200052F823301A69012383401A4214BF012073
:100630000020704700207047F0020108034B1B6840
:100640001B06FBD5024B1860704700BF0038014005
:100650000438014008B500214FF48042144800F0EE
:1006600047FB1448FFF718FF1348FFF715FF134A1D
:100670001349136823F47D53136052F8043C23F4A8
:10068000BB5323F01C0342F8043C0B6823F4E063E3
:1006900023F001030B600B4B4FF48B71196052F880
:1006A000043C43F4005343F00C0342F8043C08BDFF
:1006B00020380240097C09000A7C090010380140FA
:1006C000143801400838014010B5C26C0187D36866
:1006D00001F4D07423F4D0732343D360C26C01F0CF
:1006E0000101536923F001031943516110BD10B595
:1006F000EFF3108472B6FFF7E7FF14F0010F00D19B
:1007000062B610BD10B5EFF3108472B641B1C26C81
:10071000D368526903F4D07302F0010213430B80D3
:100720000021FFF7D1FF14F0010F00D162B610BD18
:1007300010B5026B136CD46C5808936CE168B3FB72
:10074000F0F358090133A3EB4013E1605B0843EA7F
:100750000013D06C836021F4B05392F83D1001294E
:1007600002D143F4C06303E0022908BF43F480636D
:1007700092F83E00092802D0082802D109B143F4BA
:100780008053D16CCB60D16C92F83F000B6923F49D
:10079000405308B143F400530B61D26C536923F406
:1007A0004073536110BD036BDA6C50685A8F40EA96
:1007B00002420A6000225A87C0B2704710B5006B2F
:1007C000EFF3108472B6038F11B143F0200104E0FF
:1007D00023F4907121F0010189B2FFF788FF14F032
:1007E000010F00D162B610BD036BDB6C1868C0F35B
:1007F00040107047036BDB6C59607047036BDB6C18
:100800001868C0F3C010704738B50446006BEFF3AA
:10081000108572B6038F41B143F0800189B2FFF7B2
:1008200066FF204602F018FC05E023F08001090471
:10083000090CFFF75CFF15F0010F00D162B638BD5F
:1008400070B5836815461E6940F201139942346BF6
:1008500003D0B1F5817F1ED03CE0002A3DD0104688
:10086000216C02F04FFF94F83D303BB1012B08BFE3
:1008700020224FF0100318BF002200E01A46134355
:1008800094F83F2043F00303002A14BF04220022FF
:100890001343AB801CE002B3928802F00303032BE6
:1008A0001BD102F010039BB223B112F0200F14BF32
:1008B0000123022384F83D30AB882846C3F380032C
:1008C00084F83F3002F01CFF20643046FFF730FF11
:1008D000002070BD6FF0180070BD6FF0150070BD86
:1008E00010B5046B94F8440000F092FA002194F8DB
:1008F00044000A46BDE8104000F096BC38B5046BD1
:10090000064994F84400224600F08EFC054618B9CA
:1009100094F8440000F08EFA284638BD21090008FA
:1009200038B514464FF48075E26C13689BB2990693
:10093000638707D5218F880604D5204602F0C4FBC3
:10094000012304E013F00E031CBF53680023628FE1
:10095000110606D5228F120603D5204602F07CFB35
:100960000123013D01D0002BDED1002038BD38B578
:100970000546046B002184F83C102046FFF7C2FEB8
:100980002B6B104ADB6C934207D002F57442934202
:1009900009D10D484FF4804102E00C484FF400317A
:1009A000002200F0A5F9E26CD36823F4005323F091
:1009B0000C03D360206DFFF729FE606DBDE8384061
:1009C000FFF724BE00440040203802402438024093
:1009D00038B5046B1F4AE36C0546934207D002F515
:1009E0007442934209D11C484FF4804202E01B48F4
:1009F0004FF40032002100F07BF9206DFFF74CFD31
:100A0000606DFFF749FDE26C94F83F10136923F421
:100A10007D5309B143F400531361E26C2846D36857
:100A200023F4BE73D360E26C536923F4E06323F0D4
:100A300001035361FFF77CFEE26C0020D36843F4AE
:100A4000005343F00C03D3600123208784F83C302B
:100A500038BD00BF00440040203802402438024026
:100A60000138022809D8064B53F8200030B190F81D
:100A70003C30002B08BF002070470020704700BFAB
:100A80000003010810B5074C00212046FFF73AFE8D
:100A900004F158000021FFF735FE2046BDE8104064
:100AA00096E700BF0000002030B5114985B011481D
:100AB00002F079FA0E49104802F075FA68460F49BB
:100AC00002F0C4FD002401230D4A52F8241049B15C
:100AD000CA783AB95D1C684630338DF8093002F0A7
:100AE00062FA2B460134032CEED105B030BD00BFB5
:100AF000000000203C0301084903010854030108D9
:100B00000003010813B504460DF106010948FFF77B
:100B1000F9FD0A2C02D10D20FFF790FDE0B2FFF79E
:100B20008DFD0448BDF80610FFF7E1FD204602B038
:100B300010BD00BF0000002030B5EFF3108572B685
:100B4000164B174A1B6811889BB2C3F3002408B1E7
:100B5000013101E041B10139118014B9128862B943
:100B600009E0128812B106E0002CF7D023F480735C
:100B70000A4A9BB21360002304E0084A43F48073DE
:100B80001360012315F0010F00D162B623B1BDE857
:100B90003040042000F078B830BD00BF0070004045
:100BA000840300204FF6FF63044A11680B40136072
:100BB000034B00221A80FFF7BFBF00BF0070004048
:100BC00084030020012810B50C4605D007D3022865
:100BD00011D14FF4806204E04FF4007201E04FF451
:100BE0008072064824B1002100F082F8002010BD78
:100BF00011462246F8E76FF0150010BD0470004062
:100C0000024B1868C0F34000704700BF04700040FA
:100C1000024B186800F00100704700BF04700040EC
:100C2000094B1A6812F0100F1A46F9D1074900F45F
:100C3000C0500B689BB223F4C0531843086013687C
:100C4000DB06FCD4704700BF047000400070004019
:100C5000044A00F0E00013689BB223F0E003034372
:100C6000136070470070004002480021102200F01D
:100C70003FB800BF0070004002481021002200F081
:100C800037B800BF0070004082B0B0F57A7F0DD950
:100C90000023019340F6EB23019A9A4202DC019B68
:100CA0000133F6E7A0F57A70EFE76438642809D9D4
:100CB00000230193019BB3F58C7FF6DA019B01338E
:100CC000F7E70A380A2808D900230193019B1B2B58
:100CD000F7DC019B0133F8E7013838B100230193B9
:100CE000019B022BF8DC019B0133F8E702B070474F
:100CF00010B5EFF3108472B6036823EA01010A43CA
:100D0000026014F0010F00D162B610BDF8B50746BD
:100D10000D46064C2668216000F09DF838462946AD
:100D200000F0A2FA20682660F8BD00BFD00B0020BA
:100D30000F2810B50DDD1038441103EB840303F1C7
:100D4000604303F561430B6000F01F000123834003
:100D50000FE00E4B04280B6002D14FF4803308E003
:100D6000052802D14FF4003303E0062804D14FF4E4
:100D700080231360002010BD0F2803D1044B0B60AB
:100D80000123F6E74FF0FF3010BD00BF24ED00E077
:100D900010E000E0164A4FF0FF3310B513605360C7
:100DA000144B154A1A60154A4FF080331360536094
:100DB0009360134BA2F618121B680133DB0013F18A
:100DC000FF3304D34FF0803142F8041BF7E70024CF
:100DD0000C4B22460C490B201C6000F025FA0B49F5
:100DE0002246032000F020FA84F3118862B610BD79
:100DF00080E100E008ED00E00100000818ED00E0EF
:100E000004E000E0D00B0020B10E0008590E0008ED
:100E100013B58023694601AA0446FFF789FF38B954
:100E2000009B0F2C0199D7BF1A6819608A431A607A
:100E300002B010BD13B50023694601AA0446FFF7AE
:100E400077FF30B99DE80C000F2CDCBF11680B4315
:100E5000136002B010BD704738B50B6C0E4D9C1E70
:100E6000AC420BD30D4DAC4208D233F8023CB3F583
:100E70005F4F03D1BDE8384000F01AB8EFF310839C
:100E800072B6074B07491B680020074A02F01CFC9A
:100E90000648AB2100F026F8000000084B250108A9
:100EA0002CED00E06C0301085F0301088B030108CF
:100EB0008B6A10B5012B0C460DD007D3022B0DD138
:100EC0004822C86A02F0E3FB226B05E0C86A4822A8
:100ED00002F0DDFB02E0CA6A014B1A60002010BD7F
:100EE000D00B002080B56C4688B04B4F0346009174
:100EF0004A4A00204A4902F0E7FB3B68B3F90C205C
:100F00002AB9484B4FF480751E68043E01E01E6B01
:100F10009D6A4549454A2346002002F0D5FB4449D5
:100F2000424A3346002002F0CFFB002041493F4AAD
:100F30002B4602F0C9FBB44202D8751BAC4205D85F
:100F40003D493A4A002002F0BFFB1BE024F01F0499
:100F5000B44217D223680020009363683749019395
:100F6000A368374A0293E368039323690493636990
:100F70000593A3690693E3690793234602F0A4FB54
:100F80002034E5E72F4C2268002A38D0936AD2F843
:100F90002CC0D2F830E0566B9568D0681169526960
:100FA0008DE800500296039504900591069226491B
:100FB000264A002002F088FB22689369D2F81CC000
:100FC000D2F820E0566A956B1068D16B126C0490D1
:100FD000059106928DE80050029603951C491B4A24
:100FE000002002F071FB2268536C5168EFF3148209
:100FF00000208DE806001749144A02F065FB2368BB
:101000001BB93B68B3F90C301BB9EFF3108372B610
:10101000FEE7012000F0BEFADC0B0020A20301086D
:10102000D6030108EC02010800040108AC03010822
:10103000160401082C040108420401087E0401087A
:10104000B9030108D00B0020B1040108C603010850
:10105000E204010813050108704700F000B8002001
:1010600070470000434D444A01232B70002383B591
:1010700013605360414A424E13605360414A13600B
:101080005360414A13605360404A13605360404AC2
:101090001360536033804FF6FF703E4A0027991863
:1010A0009F500833402B8880F5D133883A4C03F0A9
:1010B0000703318842F8334002EBC3029180204697
:1010C000B822394602F0BAFA33882B49A381334B50
:1010D0000326236163610623A383314B2046C4F8B2
:1010E000B83004F1B803C4F8B430A676C4F8BC70C4
:1010F00002F001FA204602F06DFD0223684601A9C4
:101100002B7002F0C9FC9DE8030002F043FB254B65
:101110002E700BB100F0F0FA234B0BB101F002FA84
:10112000224B0BB100F006FE214B0BB100F066FF25
:10113000204B0BB108F06CF905F056FA02F036FDC1
:101140000423217F14482B7000F074FA124800F039
:1011500093FA114800F08AFAA36801221A7002205B
:1011600001F0E6FF05232B7000F042F802F0A0FC2E
:10117000FCE700BFE40B0020DC0B0020380C002053
:10118000400C0020D40B0020F00B0020E80B0020C6
:10119000440C0020F80B0020880300206510000894
:1011A00040050108F916000825250008351D00082E
:1011B000FD1F00081194000813B50024FFF74DFF30
:1011C0000094084864214FF4C062074B00F0BEF859
:1011D000A04204DC054840F20D11FFF783FE2046D3
:1011E00002B010BD840501083D3E000889050108D4
:1011F00013B5002400F0E8F900940848F0214FF4FA
:101200000062074B00F0AFF8A04204DC05484FF441
:10121000B471FFF767FE204602B010BD9B050108C0
:10122000B911000889050108452870B505460C4626
:1012300013D8EFF3108672B619B9FFF7E9FD22460D
:10124000074C084840F8354000EBC500426016F0F6
:10125000010F00D162B6002070BD6FF0150070BDA7
:10126000911200085C0C002010B5452897BF064B72
:10127000064C53F8304003EBC00394BF5A68002279
:101280002346BDE8104018475C0C0020911200086E
:1012900008B5EFF3108372B601484121FFF722FE33
:1012A000A60501082DE9F3410446B8200E4617466D
:1012B000984602F08FFA054600283AD0314600F0F1
:1012C000B9F900281EDB284600F0F6F9002819DBE2
:1012D00028464146324602F03AFC002812DB0096CE
:1012E00028463946174A089B00F074F8002809DBA5
:1012F0002146099A284600F0CFF8284600F0B6F9B2
:10130000002801DA44420FE02846AC8900F020F9B9
:10131000002807DA00F07CF90B490468284602F03F
:10132000F6F801E020B20AE02846314600F012FA51
:1013300000E00C2400F06CF904604FF0FF3002B0C4
:10134000BDE8F08169150008E80B002037B50D46AF
:1013500014460093069B002101932A462346FFF77B
:10136000A1FF03B030BD37B50D4614460093069B70
:10137000022101932A462346FFF794FF03B030BDB4
:1013800038B5054600F006FA0821104A13880133E3
:101390009BB218B200281380DCBF012313800C4AD3
:1013A00003F0070052F830404CB942F8305002EBDD
:1013B000C0029380AB8100F0FBF9204638BD0139B3
:1013C000E3D100F0F5F94FF0FF3038BD400C0020BC
:1013D000F80B00202DE9F04104460E4690461F46CA
:1013E000FFF7CEFF054610BB9DF81830F1B203F0B1
:1013F0000302A38B217623F003031343A38304F199
:1014000038026176C4F8108029466761032000F035
:1014100003FA2046A57602F0DDFB00F0BBF920467A
:10142000044902F068F80423A37600F0C1F92846C5
:10143000BDE8F081E80B00202DE9F04104460E469E
:1014400090461F46FFF79CFF0546F8B9A38BF1B203
:1014500023F0030343F00103A38304F13802217650
:101460006176C4F8108029466761032000F0D4F942
:101470002046A57602F0AEFB00F08CF92046054927
:1014800002F039F80423A37600F092F92846BDE86B
:10149000F08100BFE80B00202DE9F84F07462B48EC
:1014A000164602F0ECF8451C0EB9344613E0002451
:1014B00056F8240078B102F0E2F8BB6A0130054426
:1014C0009D423AD240F2011301349C42F0D16FF0B8
:1014D0000600BDE8F88F0234A4003846611902F016
:1014E00033FC814668B300EB0408C0F8008017485D
:1014F00002F0C5F805461549404602F0A7F8CA466D
:101500000135083C4544043E4C44A2450ED04AF8FF
:10151000045F56F8040F02F0B2F88346316828469B
:101520000BF1010B02F092F85D44EEE7002048F861
:10153000040CC7F8B490BDE8F88F6FF05A00BDE80E
:10154000F88F6FF00B00BDE8F88F00BFBE050108F3
:1015500010B5EFF3108472B602F00AFC14F0010F1C
:1015600000D162B6002010BD08B5094B01201B68F0
:10157000D3F8B41051F8202032B140F201120130FA
:101580009042F7D1012001E05B69984700F002F832
:10159000DC0B002008B5054BC4B21B682146184679
:1015A000002200F01BFB204602F0F2FADC0B0020C8
:1015B00008B500F0B1F803480022016800F060FBB4
:1015C000F7E700BF4C0C002013B50E4C0A23236034
:1015D00000236360A36000930B480C4BE0214FF4A1
:1015E0000062FFF7C0FE83B218B2002804DA00F0F0
:1015F0000FF80068404202E0A3810123A37302B008
:1016000010BD00BF4C0C0020C7050108B115000833
:1016100008B502F0F3FA38B9044B186820B1837E9C
:10162000032B01D1583008BD014808BDDC0B002058
:101630004804002038B50546C02002F0CBF8044627
:1016400088B1A860002101220C3001F06EFF043443
:1016500000210A46204601F068FF2046002101F0E3
:101660007FFF002038BD6FF00B0038BD836801227A
:101670005A7000207047000038B504468068283052
:1016800004F0D2FF0B48032105F099F9051E0BD198
:10169000012105F040F92846022105F03CF92046D9
:1016A000BDE8384000F0B2BB01DD05F022F96FF073
:1016B000160038BD3C030108F8B5064680680025D1
:1016C000283004F0B1FF0B4B1A68B368946803F13B
:1016D0002C072C34A3681BB12046791904F0B8FFFD
:1016E0001035602D04F11004F4D13046BDE8F84007
:1016F00000F08CBBDC0B00200023054A054899183C
:10170000985008330022B3F50C7F4A60F5D170473A
:101710005C0C00209112000810B5094803686BB1F9
:10172000EFF3108472B601F0CBFE14F0010F00D17C
:1017300062B60028F1D002F041F8EEE710BD00BF1C
:10174000440C0020024B1868003018BF012070477D
:10175000440C002010B50446B8B1838953B10C4A3B
:1017600003F00703002042F8330002EBC3034FF6F7
:10177000FF729A80E36A13B1204602F06BFA2046AA
:1017800000F020FB204600F06FFB002010BD00BFE2
:10179000F80B002010B5054B1C682CB102F02EFA96
:1017A00010B9E38B0133E383002010BDDC0B002074
:1017B00070B5174B1A681C681D463CB302F01EFA40
:1017C00020BBEFF3108672B6E38B1AB2002AC4BFB7
:1017D00003F1FF33E383B4F91E30002B12DC002346
:1017E000E3830C4B1B680BB102F010FAA38B03F0E0
:1017F0006003202B06D1236A23B92B689C421CBFAF
:101800001423236216F0010F00D162B6002070BDD0
:10181000DC0B0020380C0020F8B51746154B0646A7
:101820001D680C46FFF7B6FFAB6B07B13B60ECB130
:10183000EFF3108272B6022E07D0032E0AD0012ECB
:101840000CD1A96B23680B4305E02168AB6B23EA3D
:10185000010300E02368AB63002401E06FF015048E
:1018600012F0010F00D162B600F014F8FFF7A0FFEC
:101870002046F8BDDC0B002010B5FFF7CDFF041E9D
:1018800005DAFFF7C5FE644204604FF0FF342046DE
:1018900010BD00BF37B5154B1D68FFF77BFFA86B68
:1018A000C443284600F012FC20400190019BC3B1C4
:1018B00001A800F05BF8431C0446F7D0214601A8BC
:1018C00001F079FE2146284600F012F8044600286F
:1018D000ECD02846211D00F059F8204600F026F8EB
:1018E000E4E7FFF765FF03B030BD00BFDC0B00206D
:1018F00038B58368EFF3108572B61C6A002074B1A6
:1019000022798A4202D020462468F8E703F12001B8
:1019100010B101F0DFFD02E0084601F0D1FD15F045
:10192000010F00D162B6204638BD000010B5037B20
:1019300023B9EFF3108472B60A4905E0022B0AD1ED
:10194000EFF3108472B6084901F085FD14F0010F21
:1019500000D162B610BD012B03D1BDE8104000F0EC
:1019600083BA10BDB80E0020B00E002038B5054671
:1019700000242846214601F035FE28B90134202CE8
:10198000F7D14FF0FF3038BD204638BD2DE9F0418A
:1019900004460E463830097801F024FE80460028BF
:1019A0006BD0EFF3108772B6A37E062B15D104F12E
:1019B0003C00317801F016FE78B13146082204F17E
:1019C0005000002501F063FEE563204602F0D0F9E7
:1019D00017F0010F00D162B6A1E017F0010F00D19E
:1019E00062B6A5683278EFF3108372B6286A20B128
:1019F0000179914201D00068F9E713F0010F00D19D
:101A000062B628B131460822043001F040FE85E07C
:101A100002F0F4F858B1434801F052FD0446D0B941
:101A2000414801F04DFD0446002872D013E0EFF369
:101A3000108772B63B4801F043FD044617F0010FD2
:101A400000D162B638B9102001F0BEFE044600286D
:101A50005FD001230373201D3146082201F017FED9
:101A6000EFF3108672B6204605F1200101F0F3FC79
:101A700016F0010F00D162B650E0FFF78BFEA068B0
:101A8000317800F049FB054600B34368D3B100F05C
:101A900055FB0746C0B16B6831464360AB6808220E
:101AA00083600C3001F0F3FDEFF3108572B6384619
:101AB00004F1400101F0CFFC15F0010F00D162B636
:101AC000454603E01D4601E06FF00B05FFF770FE91
:101AD000EFF3108772B61549204602F0C7F8A37ECF
:101AE000062B0AD104F150003146082201F0CFFD47
:101AF0000023E363204602F03BF917F0010F00D109
:101B000062B6A37E052B0AD12046042100F04AFAD2
:101B100005E007484FF4AA71FFF7E4F900252846CD
:101B2000BDE8F081B80E0020B00E0020511B000867
:101B3000CE05010810B50C4600F0B8F920B12146D9
:101B4000BDE81040FFF722BF6FF0020010BD00BFDC
:101B50002DE9F8430546FFF71DFEAF6D2C6C002CF8
:101B600037D0D4F80080EFF3108972B6204605F123
:101B7000400105F1480601F08DFC2046314601F098
:101B80006AFC19F0010F00D162B6D5F83890A3684D
:101B9000217B49EA030201238B4021461343AB63B7
:101BA000636811F80C0F00229847C5F83890FFF7CA
:101BB00071FEEFF3108972B62046314601F06AFCDF
:101BC00019F0010F00D162B6204600F0DBFA44465E
:101BD000C5E7AF65BDE8F843FFF7EABDF8B5838B0D
:101BE0000446DB050E4617462DD400F02DF8A568F7
:101BF0000DB9F7B915E0A38B03F00303012B03D054
:101C0000AB680BB136021E606B78012BF1D100235B
:101C1000AB60AB881BB2002BEBDA281D00F072F929
:101C2000F7E7A06828B14378012B02D18C3001F08E
:101C3000E2FC204600F0C6F8204600F0C3FAA38B71
:101C400043F48073A383F8BD10B5044600F005F893
:101C50002046BDE8104000F093B938B50446EFF3D4
:101C6000108572B6406A30B100F0ECFA606A00F09C
:101C70001FFB0023636215F0010F00D162B638BD6F
:101C80002DE9F84F06460F469246EFF3108572B6DF
:101C9000274B8B469846D3F800904468ADB244B3C6
:101CA000D8F8002023696169D31A8B4213D32046E8
:101CB000311D01F02CFCA368CBB10022E068A260CA
:101CC00015F0010F00D162B69847EFF3108572B698
:101CD000ADB27468E3E7C9EB03031344626993424E
:101CE00088BF63696269D31A9B4528BF9B462468F5
:101CF000D5E7D8F80000C9EB0000B84211D2BBF11B
:101D0000000F0ED0381A83455F4628BF074642F2BF
:101D1000107006EB8A06B473784300F07DFA012355
:101D2000B37315F0010F00D162B6BDE8F88F00BFA4
:101D30008C0E002013B5132240F2DD70042101F057
:101D4000E4FC124B00225843114B124C1A606260A3
:101D50001A682060BAB11868694600F025F894E85E
:101D60000C0001995B1A0099521A002B02F1FF3105
:101D700007DA03F16E5303F5D61303F520630A4621
:101D8000F3E784E80C0002B010BD00BF80510100F1
:101D90008C0E0020900E0020024A1368013313605D
:101DA000704700BF8C0E0020642290FBF2F30B60A2
:101DB00002FB13030248434300204B60704700BFFF
:101DC0008096980038B584680546F4B16378012B95
:101DD00002D9013B637016E0204600F00AFA204663
:101DE00000F02AF804F1280004F022FC204601F05B
:101DF0002FFBA37823B1237843F00803237002E07C
:101E0000204600F031F80023AB6038BD10B5044621
:101E1000806801F007FB22460121002005F072F9DD
:101E200022460621012005F06DF9062122460220F6
:101E300005F068F9002010BD38B505462C696CB175
:101E4000204650F80C3B2B6100F042F804F10A00E8
:101E500000F03EF8204600F007F8EFE705F10C002F
:101E6000BDE8384000F034B838B5044601F0C6FE8D
:101E700070B1EFF3108572B60B49204601F0EBFA12
:101E8000002000F03FFA15F0010F00D162B638BD16
:101E900001F088FC0028ECD1204601F08FFCBDE861
:101EA000384001F085BC00BF440C002000280BDB4B
:101EB000064B00F0070203EBC201B1F904108142A6
:101EC00002D153F83200704700207047F80B002011
:101ED00030B103881BB2002B05DB0123038002E035
:101EE0006FF0150070470020704710B5FFF7F0FF46
:101EF000041E05DAFFF78CFB644204604FF0FF34E8
:101F0000204610BD10B528B3EFF3108472B647F623
:101F1000FF7203881BB2934203D110487921FEF768
:101F2000E1FF038801339BB2038003881BB2002BBF
:101F30000ADC0B4B1B683BB15A6B8242FAD1002280
:101F40005A63184601F014FF14F0010F00D162B675
:101F5000002010BD6FF0150010BD00BFE4050108A2
:101F6000D40B002010B5FFF7CDFF041E05DAFFF7F4
:101F70004FFB644204604FF0FF34204610BD00BFA9
:101F8000EFF3108172B6837E052B06D1426B138866
:101F900001339BB213800023436311F0010F00D182
:101FA00062B6704738B5EFF3108572B6837E052BA5
:101FB00009D1446B238801339BB223800023436300
:101FC000816501F0D5FE15F0010F00D162B638BD74
:101FD00038B54FF4A07001F0F7FB064B00F5A07484
:101FE000186000F11405044901F035FAA5422846AD
:101FF000F7D138BD4C040020980E00202D4AF8B5CA
:102000000023136053602C4A4FF4C0701360536078
:102010002A4A136053602A4A13605360294A1360A6
:10202000536001F0D1FB054600F5C074002300F1B8
:1020300018060375204901F00EFAA6423046F5D184
:10204000214CC020656001F0BFFB054600F1C006D1
:10205000022300F118070375184901F0FCF9B74293
:102060003846F5D1A560FFF7B3FF4FF4807001F05B
:10207000ABFB054600F58076002300F110070373E3
:102080000F4901F0E8F9B7423846F5D18020E56004
:1020900001F09AFB054600F18006022300F11007CB
:1020A0000373084901F0D7F9B7423846F5D12561E5
:1020B000F8BD00BF980E0020A00E0020A80E002042
:1020C000B80E0020B00E00204C04002037B50022CE
:1020D00083680192EFF3108572B61C6A2CB12179E6
:1020E00001A801F057FA2468F8E715F0010F00D1B4
:1020F00062B6019803B030BD10B5064B04461B68AC
:1021000028B11846FFF7E2FF2060002010BD4FF015
:10211000FF3010BDDC0B002038B50D46044650B131
:10212000FFF738FBA46924B1237CAB4201D02468BB
:10213000F9E7FFF73DFB204638BD000010B501F080
:102140005DFD40B10D4801F0BBF9A8B90C48BDE8F0
:10215000104001F0B5B9EFF3108472B6074801F0F2
:10216000AFF914F0010F00D162B628B9182001F0C0
:102170002BFB08B10123037510BD00BFA00E00208A
:10218000A80E002010B5037D23B9EFF3108472B6BA
:102190000A4905E0022B0AD1EFF3108472B6084910
:1021A00001F059F914F0010F00D162B610BD012BF6
:1021B00003D1BDE81040FFF757BE10BDA00E0020B0
:1021C000A80E002010B5044604F1400001F078F993
:1021D00010B1FFF7D7FFF7E704F1480001F070F9FD
:1021E00010B1FFF7CFFFF7E74FF0FF32A263E063D4
:1021F00010BD10B5044604F1180001F061F910B1EA
:1022000000F08CF8F7E704F1200001F059F910B163
:10221000FFF78CFBF7E710BD07B568B1084A00214E
:10222000B0FBF2F302FB130000934FF47A735843B0
:102230000190684600F000F903B05DF804FB00BFB0
:1022400040420F0038B50446EFF3108572B658B11E
:10225000037BDB0708D5144B00201B683BB1A3426E
:1022600009D018461B68F9E76FF0150017E00F4812
:102270006E21FEF737FE23681BB19968A2680A44F5
:102280009A6018B1084901F025F902E0064801F00A
:1022900017F9237B002023F001032060237315F03E
:1022A000010F00D162B638BDCC0E0020F90501083F
:1022B00038B50446EFF3108572B6037BD90701D514
:1022C000FFF7C0FF237B9A0707D515F0010F00D158
:1022D00062B62046FFF7C8FD0DE05B0707D4204635
:1022E000064901F0B8F8064A13880133138015F047
:1022F000010F00D162B6002038BD00BFC00E002023
:10230000C80E002028B9044B1121B3F90C0000F0CD
:1023100065B86FF0150070474C0C0020014901F0C2
:102320009AB800BF980E00202DE9F041284B1F28D5
:102330001B6880460E4615469F6807D9FFF768F967
:10234000162303604FF0FF30BDE8F0813846414668
:10235000FFF7E2FE044655B130B143682B60836855
:102360006B60C368AB6002E028606860A8604EB331
:1023700035684DB9204644B307F1180101F08AF8D9
:102380002046FFF7CBFF1DE0B4B9124801F098F8E2
:10239000044650B9FFF71CFE0E4801F091F80446C0
:1023A00018B90D485F21FEF79DFD84F81080204686
:1023B00007F1180101F04FF8336863607368A36098
:1023C000B368E3600020BDE8F081BDE8F08100BFA4
:1023D000DC0B0020980E00200A06010837B5051E08
:1023E0000C4615DD1F2916D8FFF7D4F90023042267
:1023F000694628468DF800408DF801308DF802209E
:102400000193FFF797FB0446FFF7D2F9204604E05B
:102410006FF0570001E06FF0150003B030BD10B54C
:10242000FFF7DCFF041E05DAFFF7F2F864420460F0
:102430004FF0FF34204610BD2DE9F7430F46054607
:10244000002833D042681C4B9A422FD8EFF31086F5
:1024500072B6DFF868806846D8F8009001F0BEF8E0
:10246000684600212A4600F025F910F10B0F0446BA
:1024700005D116F0010F00D162B6002018E07FB13F
:1024800001A9284600F0ACF8D8F80000019BC9EB80
:102490000000984234BF181A00203946FFF784FC28
:1024A00016F0010F00D162B6204601E06FF0150072
:1024B00003B0BDE8F08300BFFFC99A3B8C0E00203B
:1024C0007FB51C46CB0715461BD5EFF3108672B6B9
:1024D00002A900F045F8002804DA16F0010F00D137
:1024E00062B619E0284602A96A4600F0B3F8214610
:1024F0006846FFF7A1FF044616F0010F00D162B64F
:1025000004E021461046FFF797FF0446002C06DA48
:10251000FFF77EF8644204604FF0FF3000E0204691
:1025200004B070BD002310B51C46094A1360536007
:10253000084A13605360084805492044183400F0E5
:102540008AFF602CF7D1054B04221A8010BD00BF12
:10255000C00E0020CC0E002060040020C80E002019
:1025600037B50D46002828D1684600F055F8041EFE
:1025700021D1EFF3108172B6154A00981368034415
:1025800000935368019A1344019311F0010F00D195
:1025900062B6104B019A9A4208DD0F49009892FBEF
:1025A000F1F3184401FB132300900193009B2B606F
:1025B000019B6B6009E008DA01E06FF01504FFF79A
:1025C00027F8644204604FF0FF34204603B030BD6A
:1025D000900E0020FFC99A3B00CA9A3B0000000001
:1025E00010B5026840680A4B0C46C117E3FB0201B4
:1025F00005A3D3E9002380185941064A002306F0B9
:10260000B7FA2060002010BD7F96980000000000FF
:1026100000CA9A3B8096980070B50C4B00251C6848
:102620000A235C430646294620464FF47A7200236B
:1026300006F0BAFA4FF47A733060A0FB0301241A53
:102640000348A4FB00457460002070BD8C0E002080
:1026500040420F0030B504680D68AC4210D34068AA
:102660004B6801D198420BDD9842A4EB0501BFBF36
:10267000064C01F1FF312418E31AA8BFC31A01E088
:102680000023194682E80A0030BD00BF00CA9A3B09
:102690008B7E062B0DD1FF2381F85030022381F869
:1026A0005130742381F8523000234B65084601F005
:1026B0005FBB70472DE9F04F3D4B85B007460E4696
:1026C00090461C68FFF766F8EFF3108972B6204653
:1026D0003D68FFF7FBFC0540039595B103A8FFF7A4
:1026E00045F901462046FFF703F9044626B1304676
:1026F000211D082200F0CBFF20462579FFF716F9AF
:1027000046E03B68E363B8F1000F24D098E8000C82
:1027100000F064F88046606208B323A1D1E90001AB
:10272000244B10EB0B0041EBEB71E3FB0A01224A57
:10273000002306F039FA214A01460123009440465D
:1027400000F07AF82046062101F0B4F9606AFFF73C
:10275000AFFD656203E02046062101F0ABF994F875
:10276000501000231F29E36306D8384600F03AFFD3
:1027700028B194F8505004E06FF00A0501E06FF0C2
:1027800003052EB1304604F15001082200F07FFF0E
:1027900019F0010F00D162B6FFF70AF8284605B01C
:1027A000BDE8F08FAFF300807F9698000000000036
:1027B000DC0B002000CA9A3B809698009126000806
:1027C00010B5FFF777FF041E05DAFEF721FF64421C
:1027D00004604FF0FF34204610BD00BF70B5EFF32A
:1027E000108672B6124C238853B1124800F068FE6E
:1027F00060B12388013B238000230360037305E05D
:1028000001F0FCF905460028EFD104E016F0010FB5
:1028100000D162B670BD16F0010F00D162B618206B
:1028200000F0D2FF10B102230560037370BD00BF3A
:10283000C80E0020C00E002008B42DE9F741099E03
:102840000D469046044618B1022E01DC002906DA36
:10285000FEF7DEFE162303604FF0FF3053E0EFF388
:10286000108772B6037BDB0701D5FFF7EBFC0AABE1
:10287000002EC4F804806673019305DD0A9A022EC7
:10288000226104BF0B9B63610DB1013500E001259E
:102890001F490E680EB9204632E03046324600230A
:1028A00091685B180AD5116841B110460A46F7E7EE
:1028B000116811B38868034410460A46AB42F7DD3D
:1028C0009168B242A1EB03031D44A1EB05019160A5
:1028D00004D120460E4900F0C8FD03E021460C4A11
:1028E00000F0CAFD237BA56043F00103237317F0BA
:1028F000010F00D162B6002005E020460449ED1A20
:1029000000F0A9FDEEE703B0BDE8F04101B070476B
:10291000CC0E002038B5184C22685AB39368013B9E
:10292000002B936026DC2368134D1BB39B68002BA0
:1029300020DC284600F0C4FD2A6803461AB19068DE
:102940009968014491601A7B587B22F001020128AA
:102950001A730BD006D30228E5D15D6819695A694C
:10296000A847E0E75B6800209847DCE75A681969E8
:102970009047D8E738BD00BFCC0E0020436B43B171
:102980001A7A11405A7A1143597211B15868FFF7F7
:10299000B9BA704738B504460D46204606F0CCFF5C
:1029A0000DB9031DF9D038BD2DE9F84383680E46F3
:1029B0001D69012105F1100840461446FFF7EAFFA2
:1029C000071E4ADB002C3BD06C6B002C40D12B4601
:1029D00005F1140943F8346F2146F3604846FFF7C8
:1029E000D9FFEB8AB5F91A201BB201339342A8BF75
:1029F00000232A8B484612B2934218BF347A05F15D
:102A000020091CBF04F00204E4B2FFF77BFA484639
:102A10000021FFF7BFFF6A8CAB8C12B21BB29A4247
:102A200018BF337A48461EBF03F001031C43E4B2CB
:102A3000FFF768FA44B128462146FFF79FFF03E0FD
:102A4000F3680BB11C60F4604046FFF75BFA04E0EA
:102A50000023F3606FF00F07F6E73846BDE8F88310
:102A60002DE9F843C58AB0F91A302DB20135044674
:102A70000F4690469D42A8BF0025238B1BB29D4266
:102A800008D0E38AE2691BB2ADB2D754E5820020D8
:102A9000BDE8F883B8F1000F24D0EFF3108972B6C7
:102AA000238B1BB29D4212D10126E36A66705B6ADA
:102AB000204631469847314604F10C00FFF76AFF83
:102AC000E36A06465B6A20460021984700E000263C
:102AD00019F0010F00D162B6002ECEDA6FF00300BC
:102AE000BDE8F8836FF00A00BDE8F8832DE9F047F0
:102AF000836880461C690E4604F120073846012190
:102B00009146FFF747FF00285DDB00254D4556D273
:102B1000A38C628C9BB212B219B28A421FD0A26AF5
:102B200001339BB2B4F92600525C19B28842D8BF77
:102B30000023A384A38813F02A0F0CD00A2A04D1FF
:102B400013F0200F18BF0D2205E00D2A03D113F05A
:102B5000020F18BF0A22327001350136D6E7002D68
:102B60002DD1D8F800305B0627D4E36A20469B6954
:102B700029469847628CA38C12B21BB29A4216D196
:102B8000EFF3108A72B6E36A20469B6901219847E9
:102B90000121A17004F10E00FFF7FCFE1AF0010FF5
:102BA00000D162B60028B1DA6FF0030507E0E36AEE
:102BB00020469B6901219847A8E76FF00A0538462F
:102BC000FFF7A0F92846BDE8F0872DE9F0418368BA
:102BD00001211C6904F10A084046FFF7DBFE061ECE
:102BE00039DB2578013515F0FF052FD0012D2BD1CC
:102BF000EFF3108772B6E3782BB9E36A20461B68BF
:102C00009847061E09DBE36A20469B689847061E24
:102C1000E26A07DA53682046984717F0010F00D19F
:102C200062B615E00023E382A38023836384A38438
:102C3000E37803B10523E380936920460121984797
:102C400017F0010F00D162B6257001E06FF0170692
:102C50004046FFF757F93046BDE8F081F8B500F17E
:102C60001406044601213046FFF794FE051E32DBB0
:102C7000EFF3108772B60025E28A238B12B21BB2E3
:102C80009A4213D00125E36A65705B6A29462046A3
:102C90009847294604F10C00FFF77CFE0546E36ADD
:102CA00020465B6A00219847002DE5DA17F0010FF6
:102CB00000D162B6002D03DA3046FFF723F90AE0AF
:102CC000E36A2046DB6A98470028F5D14FF47A7012
:102CD000FFF7A2FAF4E72846F8BD70B583680E4600
:102CE0001C691546E36A1B69984710F1190F72D1E8
:102CF00040F205339E4211D007DCB6F58A7F51D0F1
:102D000040F215139E4262D070BD40F206339E42DF
:102D100012D040F207339E4224D070BDEFF31081F1
:102D200072B6A28C638C12B21BB29A42628CA38CD4
:102D30000DDDB4F9260010E0EFF3108172B6228B9E
:102D4000E38A12B21BB29A42E28A238B03DC12B2EC
:102D50001BB2D31A1FE0B4F91A0012B21BB2D31A75
:102D6000034418E0EFF3108172B6E28A238B12B2AB
:102D70001BB29A42A7BF228BE38A238BE08AA3BFB0
:102D80001BB2B4F91A0012B21AB2ADBFD31A03B211
:102D9000D31A1B18013B11F0010F00D162B62B6052
:102DA000002070BDEFF3108272B6012D98BF002392
:102DB00005F1FF359CBF6384A384012D9EBF0023D2
:102DC000E382238312F0010F00D162B670BD20466A
:102DD000BDE8704042E7C8B940F201139E4203D0FB
:102DE000B6F5817F08D070BD75B1A3882B80E388CC
:102DF0006B802389EB8070BD35B12B88A3806B88F5
:102E0000E380EB88238170BD6FF0150070BD70B555
:102E1000836806461C69002104F10A052846FFF76D
:102E2000B9FD2378012B02D9013B237035E0002145
:102E3000E36A21709B692046984733685B0602D499
:102E40002046FFF70BFFEFF3108672B6E36A2046C9
:102E5000DB689847E3781BB9E36A20465B689847CC
:102E600016F0010F00D162B6002104F10C0006F04B
:102E70002CFE002104F10E0006F027FE012104F1D2
:102E8000140006F022FE012104F1200006F01DFED0
:102E900004F11000012106F018FE2846FFF732F871
:102EA000002070BD2DE9F047836805460E461746A1
:102EB0001C69904600F0A2FE28B1E3784BB94FF0B0
:102EC000FF30BDE8F08706F0C7FC82460028F4D149
:102ED00018E0EFF3108572B606EB070846450AD0F6
:102EE00016F8014B0A2C02D10D20FDF70BFE2046EF
:102EF000FDF708FEF2E715F0010F00D162B6384683
:102F0000BDE8F08704F1140948460121FFF742FDAE
:102F1000002846DBE36A51465B6A20462D68BA46C4
:102F2000984785F04005C5F38015BAF1000F27D00A
:102F3000E38816F8011BD80712D50D2902D11A070C
:102F400002D40DE00A290BD113F0240F07D020463C
:102F50000D212A46FFF784FD002810DB0CD10A2141
:102F600020462A46FFF77CFD002805DABA45804650
:102F700006D2CAEB070803E00AF1FF3AD5E780461C
:102F8000E28A238B12B21BB29A4204D0E36A204633
:102F90005B6A012198474846FEF7B4FF4046BDE80A
:102FA000F087BDE8F0872DE9F0410C460746012285
:102FB00001F11400002100F0B8FA04F12000002112
:102FC000012200F0B2FA04F10A000021012200F00F
:102FD000ACFA04F10C0600210A46304600F0A5FACE
:102FE00004F10E0500210A46284600F09EFA01224F
:102FF00004F11000002100F098FA3046002100F0A2
:10300000AFFA2846002100F0ABFA38462346BDE867
:10301000F04102494FF4DB7204F0C9B82006010800
:1030200010B58378044623B1002383700E30FEF779
:1030300069FF2046BDE8104001219FE410B54378A8
:10304000044623B1002343700C30FEF75BFF20469B
:10305000BDE81040022191E470B504460025E28AE3
:10306000238B12B21BB29A42AEB20BD1E28A238BEF
:1030700012B21BB29A4220D1E36A20465B6A002159
:1030800098471AE0E36A20469B6A98470028EDD0EB
:10309000238BE26AE1691BB2126AC95C2046904741
:1030A000238BB4F91A2001339BB223831BB29A42BB
:1030B000DCBF002323830135D1E726B12046BDE8DC
:1030C0007040FFF7BBBF70BD2DE9F341448CB0F9F0
:1030D000263024B2013407469C42A8BF00240026B3
:1030E0001FFA86F8FB6A3846DB699847B8B1BD8C91
:1030F000FB6AADB25B69384601A92DB29847AC4274
:10310000F0D07B8CBA6A1BB2D054A3B27B84B7F9DF
:10311000263001349C42A8BF00240136E0E7B8F114
:10312000000F02D03846FFF77BFF02B0BDE8F08108
:10313000022801D100F002B80020704708B5074806
:1031400002214FF4D27200F055F8002804DBBDE8EC
:103150000840034800F008B808BD00BF3C03010860
:10316000400601080020704718B1034B186000208A
:1031700070476FF015007047B000002070B504462E
:103180000D464618B44204D014F8010B00F034F98F
:10319000F8E7284670BD70B505460C4600F02EFDD8
:1031A00050B906F059FB38B9064B28461B68214632
:1031B000BDE870401B68184728462146BDE87040AE
:1031C000FFF7DCBFB000002038B506F0CDFC084C9E
:1031D0000546B4F90630834207D0201D06F0ACFB4B
:1031E000002804DBE580002038BD6FF00A0038BD00
:1031F000C00400202DE9F8431C4C81462378884602
:10320000022B174604D06170628000F027FAA0619B
:103210003A46012648464146267003F0D0FB071E79
:10322000124D07DAFEF7F4F9022300682B704042D2
:10323000BDE8F88305F1080103F019FB041E07DA65
:10324000032338462B7003F054FB2046BDE8F88377
:10325000281D0021324600F068F94FF6FF73EB801D
:1032600004232B700020BDE8F88300BFC0040020B9
:1032700038B500F0C3FC044610B16FF0570038BDFC
:1032800006F072FC0028F8D0114D2B78042B16D0D4
:10329000012B16D9032B17D0FEF77CFA2B78022BC3
:1032A00009D1A86969786A88FFF7A4FF041E02DAC9
:1032B000FEF77EFA03E0FEF77BFA002038BD2046D9
:1032C00038BD6FF00A0038BD6FF0050038BD00BF93
:1032D000C00400202DE9F84304468946FFF7C8FFE3
:1032E00000284FDBFFF770FF00284BDB4F462646D8
:1032F0007FB123780D2B02D00A2B07D13DE0012F9F
:1033000023D963780A2B20D10134013F0134013FD6
:10331000EEE7A21B09D14FF6FF731B48C3800430B0
:10332000FEF7F0FD4846BDE8F8831848314603F043
:10333000B4FE051EEFDA4FF6FF731348C380043066
:10334000FEF7E0FD2846BDE8F883B4EB060806D09A
:103350000E483146424603F0A0FE051EEBDB237803
:103360000A2B06D109480A49022203F096FE051EDF
:10337000E1DB08F101084644C8E7012FE5D963788D
:103380000D2BC0E7BDE8F883C0040020C80400206E
:103390006006010837B50546FFF76AFF002820DB05
:1033A0000D2D1DD0FFF710FF00281ADB0A2D11BFCD
:1033B00002A90D480D4902221EBF01F8015D0A480D
:1033C000012203F06AFE4FF6FF7304460848C380EB
:1033D0000430FEF797FD14EA240038BF284600E0C9
:1033E000284603B030BD00BFC804002060060108B5
:1033F000C00400200020704770B5044600F0FEFBBA
:10340000074D10B12B689B6805E006F025FA0028EF
:10341000F8D12B685B682046BDE87040184700BFB4
:10342000B000002038B50021044601228C3000F0A5
:103430007CF804F19005C03428460021082200F0F1
:10344000FDF84FF0FF3345F8083BA542F4D138BDF5
:103450008C30FEF73DBD002303600B680BB908609C
:1034600001E04B681860486070470B6803600B68A8
:1034700003B948600860704703460846116811B1F7
:1034800051688B4202D11146FFF7E5BF1A6802600E
:10349000186070470B6893B188B1984209D10368EE
:1034A0000B604B6898420AD100234B60704713466B
:1034B0002AB11A688242FAD1184600F00BB8704758
:1034C00003682BB11A68026002B9426000221A60D8
:1034D000184670470A6803685AB153B14A689A425D
:1034E00018BF19684FF000020ABF4860016002600F
:1034F0001A6018467047002343600B6803600B682E
:1035000013B90860486070475860086070474268A7
:1035100003680AB90B6000E013600BB94A6000E071
:103520005A60002303604360704730B1B2F5004F2A
:1035300003D292B20280002070476FF015007047EE
:1035400008B530B1B2F5004F03D292B2028000202C
:1035500008BDFEF75DF8162303604FF0FF3008BD8D
:10356000002908D004DB022902DC6FF05700704705
:103570006FF0150070470846704710B5FFF7F0FF71
:10358000041E05DAFEF744F8644204604FF0FF348D
:10359000204610BD1F2908B506D9FEF739F81623B5
:1035A00003604FF0FF3008BD026801238B401343D6
:1035B0000360002008BD1F2908B506D9FEF728F8CA
:1035C000162303604FF0FF3008BD012303FA01F218
:1035D000036823EA02030360002008BD00230360A0
:1035E000184670471F299DBF0068C84000F00100C1
:1035F0004FF0FF307047F8B50646D0B100F0C0F884
:10360000341D06F1340700252368002B0ADBA3884C
:103610009B0707D52046012100F00EF835EA20056A
:1036200028BF05460834BC42EED1304600F0B0F861
:1036300000E005462846F8BD0020704703460244D6
:10364000934202D003F8011BFAE77047421E11F8BB
:10365000013B02F8013F002BF9D1704738B5054610
:1036600050B100F00CF8013000F0AEF8044620B183
:103670002946FFF7EBFF00E00446204638BD03462D
:103680001A46117801330029FAD1101A704710B583
:10369000431E0A44914204D011F8014B03F8014F34
:1036A000F8E710BD07B5074B01921B78034113F0F3
:1036B000010303D001AA06F055FD00E0184603B04F
:1036C0005DF804FBB40000200EB403B503AA52F861
:1036D000041B0192FFF7E6FF02B05DF804EB03B0B4
:1036E000704700BFEFF3108172B6044B1A78187060
:1036F00011F0010F00D162B610467047B4000020EF
:10370000C06A7047C1620020704770B50E4615460A
:10371000044600F01FF8C1B2304600F00FF840F246
:103720006D12A4F2B273013D02FB03526FF4F66313
:103730001C4402EBA402104470BD0000044B01289D
:1037400033F8103001DD01B101331846704700BF76
:10375000620601084FF4C87290FBF2F302FB1303F8
:103760005BB1642290FBF2F302FB130333B110F060
:10377000030F0CBF0123002300E00123184670470C
:1037800010B50446204606F0D7F80028FADB10BD35
:10379000FEF7B8BB03460A460148194600F048B890
:1037A000D40E0020014800F06FB800BFD40E0020F6
:1037B000014800F094B800BFD40E00200146014833
:1037C00000F0C2B8D40E00200146014800F00EB946
:1037D000D40E00200146014800F051B9D40E00205B
:1037E00001F10F030A4423F00F03816822F00F0256
:1037F000F0B5D51A2944816019460426C36021F822
:10380000046BC7684FF4004E083DA7F802E09D80A6
:10381000151F4E80056122F8046C9B8802696FEACF
:1038200043436FEA53435380BDE8F04000F064B86F
:1038300070B504460E460021816015461430902272
:10384000FFF7FCFE04F1200304F1A402A3F10C0134
:10385000996043F8083C0C339342F7D1204600F0BE
:1038600007F8204631462A46BDE87040FFF7B8BF4A
:1038700010B5002101220446FFF757FE4FF6FF73F3
:1038800063800023636010BD38B5044606F06CF910
:10389000B4F902300546834202D16368013306E081
:1038A000204606F08BF8002803DB65800123636067
:1038B000002038BD38B5044606F056F9B4F9023098
:1038C0000546834202D16368013306E0204606F0D4
:1038D00033F80430FAD065800123636038BD426854
:1038E000012A02DD013A426070474FF6FF724280C2
:1038F00000224260FEF706BB38B5054608880C4634
:1039000000F015F80C2358432A1828448369143210
:103910003BB1198829B12088884202D91A465B68D0
:10392000F6E75460A260636003B19C6038BDB0F5F7
:10393000004F07D203090020012B02D901305B0898
:10394000FAE770470B20704770B505460C46002912
:103950004BD0FFF7AFFF34F8023C211FC3F30E0337
:1039600024F8023C34F8043CCA18B2F902000028DA
:1039700017DBCE5A506893681644586053680BB1F1
:1039800090689860108834F8043C034498B224F896
:10399000040C728822F4FF43324623F07F03034372
:1039A000738034F8023CCB1AB3F90200002814DB10
:1039B000996858684860596809B19868886034F80F
:1039C000044C198821448CB21C80508820F4FF419B
:1039D00021F07F012143518019462846FFF78CFFD3
:1039E0002846BDE87040FFF77ABF70BDF8B50646BF
:1039F000E1B1133121F00F04FFF75CFFB4F5004F84
:103A000003D22046FFF793FF00E00B200C2303FBBB
:103A10000060856925B12B88A34209D26D68F9E75A
:103A20002C463046FFF75BFF2046F8BD0846F8BD40
:103A3000AB686A685A606B680BB1AA689A602F8895
:103A40003B1B0B2B13D91FFA83FE25F804E0291921
:103A5000A4B24C802F442C807A88304622F4FF4355
:103A600023F07F034EEA03037B80FFF745FF6B885B
:103A70002C1D6FEA43436FEA53436B80D1E738B59F
:103A80000D46FFF7B3FF044618B100212A46FFF7A1
:103A9000D5FD204638BD0000044B1B680360C3F110
:103AA000005303F500430B60704700BFEC020108B0
:103AB000704700002DE9F041837E1B4C023B012B37
:103AC00007468846266803D918485421FDF70AFAA4
:103AD00005F084FD41460546384605F0EFFD144BE0
:103AE0001B681BB105F0B8FD2843C5B2D5B1114F15
:103AF00006F16C05396851B1284600F01DF82468BC
:103B000020466C3405F0FBFE3C60BDE8F081246883
:103B1000204605F0F4FE284604F16C01BDE8F041B2
:103B200000F05DB9BDE8F081DC0B00207C060108E7
:103B3000380C0020D00B0020814207D0002351F820
:103B4000232040F823200133122BF8D1704738B5D9
:103B5000C36A05460C462BB1836A8B4202D01146DC
:103B600000F078F8EB6A1BB92046FFF72DFEE862FB
:103B7000EB6A53B11A1F144424F00704C3F1040381
:103B80002C631C44AC62002038BD4FF0FF3038BDC0
:103B900008B5EFF3108372B605F0BAFF024B186850
:103BA0006C3000F017F900BFDC0B002008B5084BA3
:103BB00000221A60FDF7EEF800F01DF906F03CFB5C
:103BC000FCF772FFBDE808400120FFF7B1BA00BF63
:103BD000D00B002010B5044600215C305822FFF7BE
:103BE0002DFD236BE366236923F00103C4F8AC3099
:103BF0004FF08073C4F8B03010BD0000024B18685D
:103C0000003018BF01207047D00B002070B50F4D59
:103C10002C6805F021FDC0B10D4E6C34316849B1FE
:103C20002046FFF789FF2C6820466C3405F067FEBC
:103C3000346070BD2D68284605F061FE204605F110
:103C40006C01BDE8704000F0CAB870BDDC0B00200C
:103C5000D00B002010B50446C06A18B1FEF704F975
:103C60000023E3620023A36210BD000010B5EFF350
:103C7000108472B6C26D002A30D11B4A126890427D
:103C80001AD11A4A12680AB9884727E0C165116C2F
:103C90006C3040F80C1C516840F8081C516C40F81E
:103CA000041C13491164012151604FF0807151646B
:103CB0001146FFF741FF11E0D0F8AC20C165026664
:103CC000026F4266D0F8B0208266094AC0F8AC2084
:103CD000012202674FF08072C0F8B02014F0010F8B
:103CE00000D162B610BD00BFDC0B0020D00B00205D
:103CF000F53C000830B5124B93B01C68E36DA56D20
:103D00001BB910485821FDF7EDF804F16C01684625
:103D1000FFF712FF236E00211093A26E636E1192C3
:103D2000E26D0193E16513F0010F00D162B6204608
:103D30009047EFF3108372B6A565684600F04AF825
:103D4000DC0B002093060108C36A073121F007014C
:103D50005BB1826A8A4289BF036B00235B1A511AE6
:103D600081BF0363C3668162043318467047000055
:103D700070B5837E144D043B022B06462C6803D994
:103D800012484E21FDF7AEF805F0ACFC304605F0C8
:103D9000FFFBC0B10E4E6C34316849B12046FFF7CD
:103DA000CBFE2C6820466C3405F0A9FD346070BD54
:103DB0002D68284605F0A3FD204605F16C01BDE8FD
:103DC000704000F00CB870BDDC0B0020AB060108A1
:103DD000D00B002001464FF0010000DF70470A467B
:103DE00001464FF0020000DF7047000008B505F003
:103DF00089FD002008BD08B50B4A0F2013680B4948
:103E000023F07F4343F000431360094B094A1A60D3
:103E10000022FDF709FA084B07221A600F20BDE8BF
:103E20000840FDF707B800BF20ED00E0ED3D0008B9
:103E300014E000E0FFE1040010E000E010B500F045
:103E400011F80020014600F00EF8044605F058FC79
:103E500003492246143007F070FA012010BD00BF5C
:103E6000C4060108704710B500F0A6F8044600F03B
:103E7000D7F8236A0146204698470000B8307047BB
:103E800070B504460E46154652B1D0F8B40008B1DC
:103E900007F00DFAD4F8B0302B60D4F8B4306B6072
:103EA0000023C4F8B060C4F8B43070BD38B504461F
:103EB000D0F8B45005F024FC0C30854208D105F050
:103EC0001FFC0C3007F0F3F90123C4F8B03038BD03
:103ED000D4F8B40030B107F0EAF9D4F8B40007F030
:103EE00034F907E0D4F8B000002803DB012801D042
:103EF00002F0FFFC4FF0FF33C4F8B0300023C4F8E9
:103F0000B43038BD38B50D460446FFF7CFFF2B68F7
:103F1000C4F8B0306B68C4F8B43038BD10B504468E
:103F2000FFF7C4FF2046BDE81040FFF747BC0C4632
:103F300008B5FFF7F3FF2046FDF72CFB0EB417B5CD
:103F4000D0F8B430044653B9D0F8B0000A4907F0AD
:103F5000D2F8C4F8B40010B94FF0FF3006E006AA5A
:103F6000D4F8B4000599019207F0F4F903B0BDE864
:103F7000104003B0704700BF080C010870B5D0F8BE
:103F8000B43004460E4615463BB9D0F8B000094996
:103F900007F0B1F8C4F8B40040B130462A46D4F86E
:103FA000B4300121BDE8704007F060B94FF0FF3038
:103FB00070BD00BF080C010810B5F820FFF70AFC1F
:103FC0000446B8B10C4B03600C4B83600C4BC360D0
:103FD0000C4B03610C4B43610C4B03620C4B836134
:103FE0000C4BC3610123C0F8B03005F089FB0C30E5
:103FF000C4F8B400204610BD194000081D3F000859
:104000007D3F00083D3F00087D3E00082F3F00082F
:10401000813E0008053F000808B5FFF7CDFF08BD49
:1040200073B504461948D4F8B41007F056F9D4F81B
:10403000B40007F03CF9D4F8B410154807F04DF976
:10404000D4F8B40007F033F905F05AFB064605F042
:1040500057FB04F1B80500F10C0340212846321D3E
:1040600000F04CF8013004D02046294600F0E0FA78
:10407000DDE701250095D4F8B4000649064A074B50
:1040800007F05BF9284602B070BD00BFA008010828
:104090009A08010844070108EB060108F706010821
:1040A000006903F022B813B504468DF807102069A3
:1040B0000DF10701012203F018F8002803DAFDF7DB
:1040C000A7FA0368042BF2D002B010BD13B5044662
:1040D000E0680DF10701012202F003FD002802D182
:1040E0004FF0FF3008E005DAFDF792FA0368042B81
:1040F000EED0F5E79DF8070002B010BD30B50546DB
:104100000C46126887B00492074A08490292084A8E
:104110001B680191039201A829462246059300F0ED
:1041200009F807B030BD00BFA7400008CD40000827
:10413000A1400008012A2DE9F84306460F4614461F
:1041400002DC0021397059E083682E490322984728
:1041500000254FF00008336830469847431C01465D
:1041600006D1002D4AD000237B552846BDE8F883B0
:10417000B8F1000F09D05B28EBD1B8F1020F14BFE2
:104180004FF002084FF00008E5E7082801D07F282B
:104190000CD1002DDFD07368304608219847B368F2
:1041A000304618490322013D9847D4E71B2802D125
:1041B0004FF00108CFE70A280AD16C1C0A2100231E
:1041C00079553B553046736898472046BDE8F883DB
:1041D0000D28F2D0A0F120035E2BBCD8785573686F
:1041E00030469847A81CA04205F1010901DA4D4666
:1041F000B1E707F809804846BDE8F8830846BDE8FE
:10420000F88300BF0007010870B50568044695F8FB
:10421000A93013B1406802F06CFBAB6828469847A0
:1042200004F108060025A3689D4205DA56F8040F3C
:10423000FFF7C4FA0135F6E72046BDE87040FFF706
:10424000BDBA38B504460068A16804F10C0200F05C
:10425000E7FA05462046FFF7D7FF284638BD2DE987
:10426000F041064605682C4615F8011B19B920785F
:1042700038B9BDE8F0811C4807F067F90028F2D191
:10428000F5E73E280BD163783E2B0BBF0234013497
:10429000346034600CBF15481548BDE8F081232810
:1042A00003D134600020BDE8F081222808BF01342A
:1042B000A0460CBF0F4F0C4F98F80010454608F170
:1042C000010831B92A782B464AB1002201351A700B
:1042D00005E0384607F039F90028EDD0F2E73560FF
:1042E0002046BDE8F08100BF030701080907010867
:1042F00007070108B20801082DE9F04F0F460446F0
:1043000095B00DF1240800212C2214AE4046FFF791
:1043100095F9002546F8407D84F8A85084F8A95006
:104320003046FFF79CFFC4F8AC508146002800F0EF
:104330001E81B04907F015F970BB0A23C4F8AC30F0
:104340003046FFF78CFF8146002800F01081AA4913
:1043500007F007F90546F8B93046FFF780FF074632
:10436000D0B106A92A4607F029F8C4F8AC001430E9
:10437000272804D8069BBB4201D01B782BB12369A8
:1043800020469E499B4A9847EBE03046FFF767FF7F
:104390008146002800F04881CDF824900125304660
:1043A000FFF75DFF48F8250010B101350A2DF6D161
:1043B00014AB002203EB8503012D43F82C2C00F0F5
:1043C000D8806E1E14AB03EB860757F82C0C8C4973
:1043D00007F0C7F828B93546012384F8A83047F814
:1043E0002C0C022D40F3C580AE1E14AB03EB8607E8
:1043F00057F82C0C834907F0B4F850B9012384F81E
:10440000A93014AB03EB850555F8307C35462626DC
:1044100012E057F82C0C7C4907F0A3F850B901239F
:1044200084F8A93014AB03EB850555F8307C35468C
:10443000162601E000263746062D04DD23692046B6
:1044400072494A46984700962046099942463B469B
:1044500001F00AFA002806DB14BF0125002584F8C4
:10446000AA506D42E0E094F8A930A3B13846314635
:104470004FF4DB7202F0A3FAB0F100090DDA099EE5
:104480002569FDF7C5F80368614900932046324667
:10449000604BA84765E04FF0FF3994F8A83033B37C
:1044A0002368204698470646C8B13820FFF792F99E
:1044B000074688B1834680E840024FF0000A4BF877
:1044C000085F58F82A00FFF7C9F80AF1010AAA455F
:1044D0004BF8040FF5D125E0B3683046984794F8BF
:1044E000A930002B3DD0484602F003FA39E094F899
:1044F000A93023B1A3692046494606AA9847294610
:104500002046424600F08CF994F8A93005461BB1CC
:10451000E369204606A99847002D22DB002584F890
:10452000AA5081E094F8A93023B1B36930464946D6
:1045300000229847002005A905F03CF9E0B1DDF81C
:1045400024802569FDF764F84246036820460093FD
:104550002F49314BA8473846FFF756FEB36830461F
:104560009847012384F8AA304FF0FF355CE000251E
:104570005AE00026374666E7D4F8AC50002D11D03B
:10458000059B4FF00200A3EB050505DA06F09FF846
:10459000A842A8BF284604E006F09BF8A842B8BF8E
:1045A0002846059006A806F069F8022106A806F03C
:1045B00071F805A906A806F076F80DF10E0006A917
:1045C000164A3B4604F0F4FD30B1009025692046C0
:1045D0000F49099A124BBDE7BDF90E0004F0F4FE35
:1045E000059ABDF90E300092256920460D49099AB9
:1045F000A84793E7B4080108B90801080C070108A7
:10460000BC08010807070108090701082707010876
:1046100044070108BE080108C30801084342000816
:10462000D1080108E0080108284615B0BDE8F08F60
:1046300070B505460E460C462046164906F09EFF0C
:10464000235C221823B928463146BDE8704053E662
:104650000A2BF8D0232BF6D03B2B02F1010009D115
:1046600000230446137028463146FFF745FE80B903
:104670002646E1E7222106F068FF40B9064A2C6988
:10468000284606491346A0474FF0FF3070BD441C32
:10469000D2E770BD5C070108B20801086107010894
:1046A00008B503490369126898474FF0FF3008BD09
:1046B0002308010808B50021036A9847CB680A4619
:1046C000D0F810C013B1034912686047024912685C
:1046D000604700BF2C0A0108350A0108F8B50446F6
:1046E0000F460E4D286880B1394606F03AFF06465F
:1046F00048B9236920460A493A4698472046294640
:10470000FFF7DCFF08E01035ECE723692046054998
:104710003A4698474FF0FF363046F8BDEC0801089E
:104720003B0A0108230801080129F8B504460D4693
:1047300016462BDD50682F4906F013FF10B10122F9
:10474000002303E0022D50D00222012356F822500C
:10475000D3B1236928492046984723692046274931
:10476000984725B120462946FFF7B8FF3FE0236967
:10477000204623499847234D2B6833B329462046CA
:10478000FFF79CFF1035F7E7002DEBD11E492046BF
:10479000FFF7A4FF236920461C4998470025236999
:1047A00020461B4998472E46164A37012369204662
:1047B0001849BA5804369847122EF5D9236920466D
:1047C000124901359847042DE9D123692046124941
:1047D00098470025284604F0ADF9024638B1236910
:1047E00020460E4998470135F4E70546B1E7002019
:1047F000F8BD00BF450A0108480A01085C0A010823
:10480000970A0108EC080108BF0A0108950A010887
:10481000CC0D0108C40A0108AF0A0108350A0108D5
:104820002DE9F04105460E4690461768124C206867
:10483000D0B1394606F095FEA0B9237A9E4203DA3C
:104840002B6928460D4905E0637A9E4208DD28461B
:104850002B690B493A4698474FF0FF30BDE8F0818D
:10486000636802E01034E2E7064B284631464246D0
:10487000BDE8F041184700BFEC0801085C080108DA
:1048800027070108A1460008F7B505460E46084669
:104890000E49174606F065FE05F1240430B920469E
:1048A00082210B4A3B4605F0C0FF06E000972046F8
:1048B0008221084A334605F0B8FF2046002385F8D8
:1048C000A53003B0BDE8F040FEF7C8BE3F0C0108BC
:1048D000430C0108410C01082DE9F0431E46B307C3
:1048E0008DB004460F4615467DD05AB10132FFF710
:1048F000CBFF05A9804602F090FA81464046FEF7BC
:104900005DFF04E0084605A902F087FA8146D4F865
:104910001080B9F1000F0BD0FCF77AFE0368444910
:1049200000932046434A444BC0474FF0FF307CE0A1
:10493000B10751D5414A02AB5168106803C31189D0
:10494000927A19809A70059B03F4E042B2F5005FF9
:1049500001D164220DE0B2F5805F01D1632208E04D
:10496000B2F5405F01D1622203E0B2F5804F02D080
:104970003F228DF80820DA0544BF72228DF8092005
:10498000180644BF77228DF80A20590644BF7822C2
:104990008DF80B209A0644BF72228DF80C20D806A1
:1049A00044BF77228DF80D20190744BF78228DF877
:1049B0000E205A0744BF72228DF80F20980744BF7B
:1049C00077228DF81020D90744BF78238DF8113055
:1049D00020461B4902AAC047F20704D52369204696
:1049E0001849069A98472369ADB16E1C20461449B0
:1049F000324698472B781B0709D53046124906F0F6
:104A0000B0FD20B13046114906F0ABFD40B9236935
:104A100020460F4907E020460E493A46984703E0F2
:104A2000204623690C49984700200DB0BDE8F0836B
:104A300044070108680B0108470C0108560C0108DF
:104A40008A1C01084C0C0108510C0108500C01088B
:104A5000950A0108360A0108530C0108F7B51F46EC
:104A60001378054603F008030E4603F0FF045BB31A
:104A7000541C2046164906F074FD20B32046154903
:104A800006F06FFDF8B1314622462846FFF7FCFEDE
:104A900006462B6910493246284698470097284613
:104AA0000E4932460E4B00F091FE044660B9009765
:104AB00028460A4932460B4B00F088FE0446304631
:104AC000FEF77CFE00E00024204603B0F0BD00BFEE
:104AD000510C0108500C0108610C0108680B010819
:104AE000D94800085D4A0008F8B50F461646054645
:104AF00001240020BC4211DA80B956F824203AB9CA
:104B00002B6928460649326898474FF0FF3003E08A
:104B10002846316800F082FD0134EBE7F8BD00BFA4
:104B2000B30701082DE9F0434FF0000905460F4691
:104B300090464E468BB038464146434A06F07AFDD1
:104B4000431C044617D06C2C06D0732C07D0522C73
:104B500008D146F00406EEE746F00306EBE746F020
:104B60000106E8E72B6928463849D8F8002098471D
:104B70004FF00109DFE7B9F1000F61D1344B1B6839
:104B80005A1CBA4203DA2B692846324904E0BB4278
:104B900006DB28462B693049D8F8002098474FE0BB
:104BA00058F823701FB92B6928462C49F4E738467A
:104BB000FEF765FD01383844C31B002B06DD037882
:104BC0002F2B03D1002300F80139F5E7384603A95C
:104BD00002F023F900280EDA2C69D8F80060FCF7FF
:104BE00017FD03681E490093284632461D4BA04717
:104BF0004FF0FF3025E0039B03F4E043B3F5005F83
:104C000006D02846394600223346FFF765FE18E0F5
:104C10002B6915493A462846984700962846134975
:104C20003A46134B00F0D2FD58B916F0040008D0F4
:104C3000009628460D493A460E4B00F0C7FD00E0AD
:104C400020460BB0BDE8F083660C01080C07010894
:104C5000BC000020270701085C080108B307010811
:104C600044070108470C0108610C0108680B0108A2
:104C7000D94800085D4A0008F7B55368064615464E
:104C80000BB1916831B933690C492A6898474FF0E4
:104C9000FF3010E0184601F031FF041E0ADA2D68DB
:104CA0003769FCF7B5FC03680549009330462A468E
:104CB000044BB847204603B0F0BD00BFB30701085E
:104CC000440701086A0C01082DE9F04F13788DB0F4
:104CD00003F008030446089103F0FF00002B00F0E6
:104CE0006081114602F1200011F8013F2BB1303BE9
:104CF000092B00F24B818142F6D10CA80023571CEE
:104D000040F8043DA849089A3B4605F081FD00287B
:104D100001DB0B9A8AB92569FCF77AFC0368A34981
:104D200000932046A24AA34BA847A34DA946A846F4
:104D30000595AA460695AB4691E0822304F1240628
:104D400000939B493346204600F0EEFC05460B9845
:104D5000FEF734FD002D984DA946A8460595AA46B4
:104D60000695AB467BDB721C114612F8013B0A2B01
:104D700000F00E81002BF7D107939048FEF77FFCDF
:104D80008E490246304606F014FC28B906F10C00A4
:104D900000F04CFD83465EE08948FEF770FC8849D0
:104DA0000246304606F005FC88B9099006F10C0071
:104DB00000F03CFD2C21069006F0C7FB00284AD0ED
:104DC000099B00F8013B00F031FD824643E07D483D
:104DD000FEF755FC7B490246304606F0EAFB28B94F
:104DE00006F10C0000F022FD059034E07648FEF755
:104DF00046FC75490246304606F0DBFB70B906F109
:104E00000C0000F013FD8046024611460B7801327B
:104E1000303B092BF9D900230B701CE06B48FEF7DF
:104E20002EFC6A490246304606F0C3FB28B906F15B
:104E3000120000F0FBFC81460DE06548FEF71FFC08
:104E400063490246304606F0B4FB20B906F10C0077
:104E500000F0ECFC0546079B0BB1079E83E7236936
:104E60005C493A4620469847059B42460193069B7B
:104E700059490293CDF800B04B46CDF80CA02669F5
:104E80002046B0470DF130082A46236953490025D2
:104E90002046984748F8045D40465149089A3B46E9
:104EA00005F0B6FCA84201DB0B9A6AB92569FCF74C
:104EB000AFFB03683D49009320463D4A3D4BA84760
:104EC000002584F824502AE0822304F12409009369
:104ED00037494B46204600F027FC06460B98FEF764
:104EE0006DFC002E1BDB09F101031A4613F8016B60
:104EF0000A2E52D0002EF8D13A48FEF7C0FB3949AD
:104F00000246484606F055FB014628B909F10C0057
:104F10000A2206F053FA05460EB1B146E3E72A46E7
:104F20002369314920469847002540462F49089A71
:104F30003B460B9505F06CFCA84201DB0B9A52B97D
:104F40002569FCF765FB0368184900932046184A59
:104F5000184BA84717E0822304F124060093144954
:104F60003346204600F0E0FB07460B98FEF726FC90
:104F7000002F08DB3046276900F058FC1C49024628
:104F80002046B84702E04FF0FF300AE0002008E07A
:104F90004B1C079300230B70EFE60023561C137085
:104FA000AAE70DB0BDE8F08FAE0C01084407010878
:104FB0000A0C0108BB0C0108960A0108710C0108D3
:104FC000770C01087E0C0108850C01088F0C010884
:104FD0009A0C0108C40C0108C90C0108E60C010870
:104FE000EC0C0108A30C0108F80C0108FE0C0108E8
:104FF000370A010873B505461646506801A9002214
:1050000006F0DCF92B69044628B1019A71688A42DE
:1050100001D0127832B128460649326898474FF0DD
:10502000FF3004E00449224628469847A04702B0D2
:1050300070BD00BF0C0701080C0D010830B5044617
:1050400085B003691449154A9847154B25690093A3
:10505000144B20460193144B14490293144B154AE8
:105060000393154BA847236920461449144A9847CF
:10507000236920461349144A984723692046134957
:10508000134A98470023009320461249124A134BB3
:1050900000F09CFB05B030BDC40C0108180D0108E0
:1050A000270D01082C0D0108300D0108C90C01085D
:1050B000360D01081C0D0108200D0108E60C010841
:1050C0003C0D0108440D0108490D0108370A01088B
:1050D0004F0D01080A0C0108570D0108C94C0008C2
:1050E0007FB505465068144603782D2B31D143789F
:1050F000303B092B2DD8013003A9002206F05EF9C0
:105100000646A0680378303B092B22D803A9002269
:1051100006F054F9314600B2FDF781F900B3FCF70F
:1051200077FA03682E69032B0BD0162B11D0246855
:10513000FCF76EFA03680B490093284622460A4B97
:1051400005E02846A368094900932268084BB04748
:1051500004E02B6928460749226898474FF0FF3042
:1051600004B070BD44070108530B01080A08010888
:105170005D0D01080C07010873B506461546506819
:1051800001A9002206F01AF928B1019B6A6893422E
:1051900001D01C783CB13369304605492A689847EC
:1051A0004FF0FF3002E006F0CBFA204602B070BDAF
:1051B0000C07010873B506461546506801A9002280
:1051C00006F0FCF828B1019B6A68934201D01C7874
:1051D0003CB13369304605492A6898474FF0FF30A3
:1051E00002E006F0C9FA204602B070BD0C070108C3
:1051F0001168014A00F012BA620D01082DE9F04170
:1052000004468846506817461049022206F0D1F934
:10521000002814BF01260226354645450DDAB54261
:1052200003D0236920460A49984757F82520236967
:105230002046084998470135EFE7012E03D123693D
:105240002046054998470020BDE8F081700D01080F
:10525000CD0D01088B1C0108950A010870B50646A2
:105260000D4648683D21144606F06FF940B1002113
:1052700000F8011B102206F0D3F80123237000E090
:105280002070A06068680021102206F0C9F8022E84
:10529000606006DDA8680021102206F0C1F8E06019
:1052A00001E00123E360002070BD2DE9F04385B0EB
:1052B00005469146084611466A46FFF7CFFF60BB98
:1052C0000446DDF80480039B08EB04069C4223D2CD
:1052D00018F804302846124932462F69B8479DF81D
:1052E000003093B1029BFF2B08D92B6928460D494A
:1052F000D9F8002098474FF0FF300EE0DBB2337052
:1053000032782B6928460849984732782B69284615
:10531000064998470134D6E7002005B0BDE8F08380
:10532000730D01083F080108810D0108950A010865
:105330002DE9F04385B005469146084611466A4678
:10534000FFF78CFF002830D10446DDF80480039B72
:1053500008EB04069C4227D238F8043028469BB25A
:10536000134932462F69B8479DF80030A3B1029B1C
:10537000B3F5803F08D32B6928460E49D9F80020A1
:1053800098474FF0FF3010E09BB2338032882B6992
:105390002846094992B2984732882B69284607491E
:1053A00092B298470234D2E7002005B0BDE8F083FE
:1053B0008C0D01083F0801089A0D0108950A0108A3
:1053C0002DE9F04385B00446084611466A46FFF7CA
:1053D00045FF8046F8B90546DDF80490039B09EBCC
:1053E00005069D4217D259F8053020460C49324631
:1053F0002769B8479DF8003033B1029B20463360DF
:10540000326823690749984732682369204606496C
:1054100098470435E2E7404605B0BDE8F08300BF99
:10542000A50D0108B30D0108950A01082DE9F04307
:105430000C46A1B090461E46224603692249074603
:1054400098470024B4423BDA68462049224605F0DA
:10545000C8F900252B19B342684609DAFEF70FF99F
:1054600008EB040368441A495A5D05F0BAF905E0EF
:10547000FEF705F917496844FEF7E8F80135102DE5
:10548000E8D100252B19B34210DA08EB0403684673
:1054900013F80590FEF7F3F8A9F120035E2B68449A
:1054A0000D4994BF4A462E2205F09BF90135102D77
:1054B000E8D13B69384609496A4698471034C1E744
:1054C00021B0BDE8F08300BF610C0108BE0D0108EA
:1054D000C50D0108CB0D0108CF0D0108370A0108E1
:1054E00073B51446064601A95068102205F098FFCE
:1054F000236805461B7813B94FF0FF3018E0019B75
:105500001A78002AF8D1A06801A905F057FF22688F
:1055100003461278002AEFD0019A1478002CEBD1C0
:105520000028E9DB304603492A46FFF77FFF204683
:1055300002B070BDD20D01082DE9F04301218BB0FE
:1055400005465068914601F03AFA071E09DA2C69BF
:10555000FCF75EF80368264900932846254A264B47
:1055600010E08220FEF730F9064678B9384601F09F
:10557000C0F92C69FCF74CF80368284600931C49D5
:105580001C4A1E4BA0474FF0FF302EE04FF00008A2
:1055900038463146822201F0A4FA041E0CDAFCF7E8
:1055A00037F803682C69009328461149114A144BB7
:1055B000A0474FF0FF3411E010D0CDF8008020213B
:1055C000104AD9F8043002A805F02FF9284602A99C
:1055D00032462346FFF72AFFA044D9E7384601F0B8
:1055E00088F93046FEF7EAF820460BB0BDE8F083B4
:1055F000440701083A0B0108BE080108DB0D010849
:10560000671F0108E20D0108202805D00938042889
:105610008CBF002001207047012070472DE9F3471F
:1056200004460E461046012101F0C9F9B0F1000808
:1056300009DA2569FBF7ECFF03683449009320463B
:105640003246334B10E08220FEF7BEF8074678B9A9
:10565000404601F04EF92569FBF7DAFF3246036850
:105660002046009329492B4BA8474FF0FF3049E0D3
:10567000002540463946822201F033FAB0F1000A93
:1056800013DAFBF7C5FF03682569042B04D1204614
:1056900021493246A84705E0009320461B4932467F
:1056A0001E4BA8474FF0FF3521E020D04FF00009F6
:1056B000E3682046394652469847002813DAFBF73C
:1056C000A7FF03682569042B06D1204612493246FC
:1056D000A8474FF0FF35CCE7009320460B493246F0
:1056E0000F4BA847F5E78144D145E1DBC1E72369CA
:1056F0000C4920469847404601F0FBF83846FEF733
:105700005DF8284602B0BDE8F08700BF44070108F5
:10571000BE080108DB0D01087A070108671F0108B0
:10572000ED0D0108950A01082DE9F74F0546894658
:10573000104601211E46DDF8308001F040F9071EB9
:105740000CDA2C69FBF764FF03681D4900932846B7
:105750004A461C4BA0474FF0FF302DE0B2460024D4
:10576000347008F1FF3B384651465A4601F0B9F90A
:1057700000280FDAFBF74CFF0368042B11D02C69CB
:10578000FBF746FF03680E49009328464A460E4B36
:10579000A04709E00BD00444002333558244C0EBFA
:1057A0000B0BB8F1000FDED14FF0FF3400E00446E0
:1057B000384601F09EF8204603B0BDE8F08F00BFE8
:1057C00044070108BE080108671F01082DE9F341DD
:1057D00006461046884614461F4601F085FD0546DC
:1057E00048B90094304634690E4942460E4BA047F2
:1057F0004FF0FF3012E0284601F0F4FD024640B1C0
:1058000030462146089BB8470028F4DA4FF0FF34B1
:1058100000E00446284601F035FD204602B0BDE810
:10582000F08100BF0A080108F30D010838B50446ED
:10583000254614F8010B28B92846FDF720FF01384A
:105840002C180BE0FFF7E0FE0028F1D1F4E72078F8
:10585000FFF7DAFE28B1002304F80139631B002B9F
:10586000F5DA284638BD00BFF0B51C460F4616468F
:1058700085B00546FBF78EFF2246384631460A9B27
:1058800000F0C8F8041E2ADB95F8A86020B2D6B94B
:1058900003A93246039603F0F1FF041E0CDAFBF76E
:1058A000B7FE03680A2B0CD000932E6928461049D6
:1058B0003A46104BB04712E0039C003418BF012455
:1058C0000DE034460BE003A903F074FF039B2E693F
:1058D00000932846234608493A46B0470024FBF780
:1058E00067FF002CACBF20464FF0FF3005B0F0BD85
:1058F00044070108FD0D0108E008010801292DE910
:10590000F34705468A46164606DC1168384A02B057
:10591000BDE8F047FFF782BE0027B946B8465046BB
:105920003146344A05F086FE431C044617D06F2CDE
:105930000BD0742C05D03A2C2B690AD128462E495D
:1059400009E02E4BD3F80080E9E72C4BD3F8009008
:10595000E5E728462A49326898470127DFE72FBB49
:10596000284A1368534503DB2B692846224912E075
:1059700003F1010ED64556F823004FEA8301C2F821
:1059800000E016DA0233314453454968136005DA02
:1059900028462B691C493268984724E0B8F1000F6B
:1059A0000CD12B6928461449326898474FF0FF30D4
:1059B0001AE0B8F1000FF4D0014638460029F5D0BE
:1059C000CDF800904246002301F06AFD041E0ADA79
:1059D00036682F69FBF71CFE03680C4900932846C4
:1059E00032460B4BB847204602B0BDE8F08700BFF7
:1059F000050E0108140E01085C080108940F002030
:105A00000C070108BC000020270701084407010813
:105A10000E0E01082DE9F0438BB00D4690469946D5
:105A200003F08EF8002801DA022456E000F05EF858
:105A300007460028F8D007AE304604F098FE04462A
:105A400000284AD105A804F08EFE0446002844D15F
:105A50007B680AA941F8103D304604F0A6FE0446D2
:105A6000002837D13046B96804F0A6FE044688BB4A
:105A70003046022104F09DFE044658BB30460C21FE
:105A800004F090FE044628BBB8F1000F04D1396839
:105A9000FA6875B104350CE04FF4D273009305A891
:105AA000012142464B4604F02DFE04460028EED06C
:105AB00010E000230293009601950DF1120005AB52
:105AC00004F0C8F8044628B905A804F041FEBDF961
:105AD000120007E005A804F03BFEFBF799FD046007
